:100000000C94A4000C9418010C9447010C947601F4
:100010000C94A5010C94D4010C9403020C943202AC
:100020000C9461020C9490020C94C0020C94F002A7
:100030000C94C5000C94C5000C94C5000C94C5002C
:100040000C94C5000C94C5000C94C5000C94C5001C
:100050000C94C5000C9430040C94C5000C94C5009D
:100060000C94C5000C94C5000C94C5000C94C500FC
:100070000C94C5000C94C5000C94C5000C94C500EC
:100080000C94C5000C94C5000C94C5000C94C500DC
:100090000C94C5000C94C5000C94C5000C94C500CC
:1000A0000C94C5000C94C5000C94C5000C94C500BC
:1000B0000C94C5000C94C5000C94C5000C94C500AC
:1000C0000C94C5000C94C5000C94C5000C94C5009C
:1000D0000C94C5000C94C5000C94C5000C94C5008C
:1000E0000C94C5000C9478000C94E10B0C94D60B86
:1000F00020C00FB6F8940F92E0918A12F0918B1203
:10010000C085D185CE0102960E941E06809176128E
:100110008150809376128091821281508093821256
:100120000F900FBE8B8D9C8D0E942A05CE010E94E0
:100130002A05809182128111DCCF8091B312823026
:10014000C0F30E946B03F5CF11241FBECFEFD1E2A5
:10015000DEBFCDBF00E00CBF12E0A0E0B2E0EEE5F4
:10016000F8E100E00BBF02C007900D92AC33B1077D
:10017000D9F722E1ACE3B2E001C01D92A03FB20783
:10018000E1F70E94EC0B0C942D0C0C940000CF9323
:10019000DF93FC01892B49F120812B3030F530E0D1
:1001A000220F331FD901AB5FBD4F4D915D914115BA
:1001B0005105D9F0255E3D4FE901A881B98110971D
:1001C000A1F09FB7F89481812281EA01213081F06A
:1001D000288180958223888381812481213079F050
:1001E0002C91809582238C939FBFDF91CF910895AE
:1001F0002881822B888381812381213089F72C916A
:10020000822B8C939FBFF1CF8B3088F4E82FF0E0E6
:10021000EE0FFF1FE55EFD4F0190F081E02D30975E
:1002200031F09FB7F8948081862780839FBF08951F
:100230001F920F920FB60F9211240BB60F922F93AD
:100240003F934F935F936F937F938F939F93AF935E
:10025000BF93EF93FF9381E08CBBE0914402F09158
:100260004502309709F01995FF91EF91BF91AF9139
:100270009F918F917F916F915F914F913F912F91BE
:100280000F900BBE0F900FBE0F901F9018951F92EE
:100290000F920FB60F9211240BB60F922F933F932C
:1002A0004F935F936F937F938F939F93AF93BF937E
:1002B000EF93FF9382E08CBBE0914602F0914702FE
:1002C000309709F01995FF91EF91BF91AF919F91F0
:1002D0008F917F916F915F914F913F912F910F90EF
:1002E0000BBE0F900FBE0F901F9018951F920F928C
:1002F0000FB60F9211240BB60F922F933F934F938B
:100300005F936F937F938F939F93AF93BF93EF937D
:10031000FF9384E08CBBE0914802F0914902309752
:1003200009F01995FF91EF91BF91AF919F918F9136
:100330007F916F915F914F913F912F910F900BBEE5
:100340000F900FBE0F901F9018951F920F920FB62F
:100350000F9211240BB60F922F933F934F935F93FD
:100360006F937F938F939F93AF93BF93EF93FF937D
:1003700088E08CBBE0914A02F0914B02309709F083
:100380001995FF91EF91BF91AF919F918F917F91BF
:100390006F915F914F913F912F910F900BBE0F90F6
:1003A0000FBE0F901F9018951F920F920FB60F92CD
:1003B00011240BB60F922F933F934F935F936F933C
:1003C0007F938F939F93AF93BF93EF93FF9380E1BE
:1003D0008CBBE0914C02F0914D02309709F01995D9
:1003E000FF91EF91BF91AF919F918F917F916F910D
:1003F0005F914F913F912F910F900BBE0F900FBEC9
:100400000F901F9018951F920F920FB60F92112404
:100410000BB60F922F933F934F935F936F937F93FE
:100420008F939F93AF93BF93EF93FF9380E28CBB27
:10043000E0914E02F0914F02309709F01995FF912B
:10044000EF91BF91AF919F918F917F916F915F914C
:100450004F913F912F910F900BBE0F900FBE0F90B9
:100460001F9018951F920F920FB60F9211240BB682
:100470000F922F933F934F935F936F937F938F933D
:100480009F93AF93BF93EF93FF9380E48CBBE09176
:100490005002F0915102309709F01995FF91EF91B8
:1004A000BF91AF919F918F917F916F915F914F918C
:1004B0003F912F910F900BBE0F900FBE0F901F908A
:1004C00018951F920F920FB60F9211240BB60F9230
:1004D0002F933F934F935F936F937F938F939F934C
:1004E000AF93BF93EF93FF9380E88CBBE0915202F0
:1004F000F0915302309709F01995FF91EF91BF9158
:10050000AF919F918F917F916F915F914F913F91AB
:100510002F910F900BBE0F900FBE0F901F9018954C
:100520001F920F920FB60F9211240BB60F922F93BA
:100530003F934F935F936F937F938F939F93AF936B
:10054000BF93EF93FF9381E08BBBE0913C02F0916E
:100550003D02309711F080E01995FF91EF91BF9126
:10056000AF919F918F917F916F915F914F913F914B
:100570002F910F900BBE0F900FBE0F901F901895EC
:100580001F920F920FB60F9211240BB60F922F935A
:100590003F934F935F936F937F938F939F93AF930B
:1005A000BF93EF93FF9382E08BBBE0913E02F0910B
:1005B0003F02309711F081E01995FF91EF91BF91C3
:1005C000AF919F918F917F916F915F914F913F91EB
:1005D0002F910F900BBE0F900FBE0F901F9018958C
:1005E0001F920F920FB60F9211240BB60F922F93FA
:1005F0003F934F935F936F937F938F939F93AF93AB
:10060000BF93EF93FF9384E08BBBE0914002F091A6
:100610004102309711F082E01995FF91EF91BF915F
:10062000AF919F918F917F916F915F914F913F918A
:100630002F910F900BBE0F900FBE0F901F9018952B
:10064000FC01608372931292129220E8229312921C
:10065000129212927797408352938697089586E07C
:1006600087BD82E084BD85E085BDEEE6F0E0808157
:1006700082608083A091EA12B091EB12CD91CDBF40
:10068000DD91DEBFFF91EF91DF91CF91BF91AF91EF
:100690009F918F917F916F915F914F913F912F919A
:1006A0001F910F91FF90EF90DF90CF90BF90AF9090
:1006B0009F908F907F906F905F904F903F902F9082
:1006C0001F900F900CBE0F900BBE0F900FBE0F909F
:1006D000089581E008950F920FB6F8940F920BB62B
:1006E0000F920CB60F921F9211242F923F924F92AD
:1006F0005F926F927F928F929F92AF92BF92CF92B2
:10070000DF92EF92FF920F931F932F933F934F939C
:100710005F936F937F938F939F93AF93BF93CF9389
:10072000DF93EF93FF93A091EA12B091EB120DB615
:100730000D920EB60D920E94CC0BA091EA12B091D0
:10074000EB12CD91CDBFDD91DEBFFF91EF91DF9137
:10075000CF91BF91AF919F918F917F916F915F9159
:100760004F913F912F911F910F91FF90EF90DF904C
:10077000CF90BF90AF909F908F907F906F905F9041
:100780004F903F902F901F900F900CBE0F900BBE7C
:100790000F900FBE0F9008950F920FB6F8940F921E
:1007A0000BB60F920CB60F921F9211242F923F920C
:1007B0004F925F926F927F928F929F92AF92BF9271
:1007C000CF92DF92EF92FF920F931F932F933F935D
:1007D0004F935F936F937F938F939F93AF93BF9349
:1007E000CF93DF93EF93FF93A091EA12B091EB12B6
:1007F0000DB60D920EB60D920E94CF0881110E9487
:10080000CC0BA091EA12B091EB12CD91CDBFDD914E
:10081000DEBFFF91EF91DF91CF91BF91AF919F919B
:100820008F917F916F915F914F913F912F911F9188
:100830000F91FF90EF90DF90CF90BF90AF909F907F
:100840008F907F906F905F904F903F902F901F9070
:100850000F900CBE0F900BBE0F900FBE0F9008951F
:100860000E94CC031895CF92DF92EF92FF920F93E4
:100870001F93CF93DF9300D00F92CDB7DEB79C01CB
:10088000215031092B3F3F4F08F07DC004966C0189
:100890000E94C90860915C0270915D02611571054A
:1008A00009F4ABC080915A0290915B02D7FC73C0EF
:1008B0008C159D0508F46FC0E0915E02F0915F0217
:1008C0002EE5E22E22E0F22E07C020813181211593
:1008D000310539F07F01F901428153814C155D05E5
:1008E000A0F3E617F70709F456C08F010C5F1F4FFE
:1008F00009831A8320813181D7012D933D93BA0159
:100900006C197D096930710570F0A6014E0F5F1FEB
:10091000DA0112966D937D9314972D933D93D70131
:100920004D935D93A601841B950B80935A0290937F
:100930005B0220915802309159028217930720F4EC
:1009400080935802909359025068428353831082D7
:10095000118280915602909157020196809356021F
:10096000909357020E943B0A89819A810F900F90C1
:100970000F900F90DF91CF911F910F91FF90EF900B
:10098000DF90CF9008950E94C90880915C029091F9
:100990005D02892B39F00E943B0A0E94250C1982C6
:1009A0001A82E2CF82E692E080935E0290935F0229
:1009B00010926002109261022EE532E120935C02F7
:1009C00030935D02109260121092611210925E12CA
:1009D00010925F128CEF9FE0809364029093650207
:1009E00020936202309363028093580290935902DD
:1009F00080935A0290935B02CECF82E692E080937E
:100A00005E0290935F0210926002109261026EE5A6
:100A100072E160935C0270935D021092601210921A
:100A2000611210925E1210925F128CEF9FE0809321
:100A300064029093650260936202709363028093F4
:100A400058029093590280935A0290935B02D7FE0A
:100A50002FCFA1CF0F931F93CF93DF9300D000D060
:100A6000CDB7DEB7009751F08C0104501109D801C1
:100A700012968D919D91149797FD0BC00F900F903A
:100A80000F900F900F900F90DF91CF911F910F91CA
:100A900008952D913D911297232B81F709831A8395
:100AA0009F7712968D939D930E94C908F8018281C9
:100AB000938120915A0230915B02280F391F2093B5
:100AC0005A0230935B02EEE5F2E0ED83FE83019083
:100AD000F081E02DE017F107C0F3AD81BE811296E1
:100AE0002D913D911497AD01420F531F0417150727
:100AF00041F19801280F391FE217F30709F446C0A6
:100B0000D801ED93FD93ED81FE8129813A81E217B1
:100B1000F30711F0208331838091540290915502A4
:100B2000019680935402909355020F900F900F906E
:100B30000F900F900F90DF91CF911F910F910C9418
:100B40003B0A820F931F12968D939D9314979D01DC
:100B5000280F391FE217F307F9F620915C02309154
:100B60005D022E173F07D1F09D01A9833A832281B0
:100B70003381820F931FA981BA8112968D939D9321
:100B80001497808191818D939D93BDCF20915C02BC
:100B900030915D02E217F30751F7B2CFED93FD9369
:100BA000BBCFFC010396818392836FEF7FEFAB0194
:100BB0004383548365837683878390878187928775
:100BC00010820895FC011286138608950F931F93D7
:100BD000CF93DF93EB01088119812A813B81FC01CE
:100BE0000F3F10072007300711F13396DF01048013
:100BF000F581E02D408151816281738104171507D1
:100C00002607370798F7EC83FD83C683D783AE8327
:100C1000BF831496CD93DD938A879B87FC01208147
:100C20002F5F2083DF91CF911F910F910895A185B0
:100C3000B2851496ED91FD911697E5CFCF93DF9392
:100C4000FC01A285B3858481958126813781EC01E1
:100C50002E833F8326813781E9018C839D83119602
:100C60008D919D9113978E179F0741F012861386E1
:100C70008C9181508C93DF91CF91089511962D9393
:100C80003D931397128613868C9181508C93DF913C
:100C9000CF9108950F931F93CF93DF9300D00F92BE
:100CA000CDB7DEB78C010FB6F8940F928091761213
:100CB0008F5F809376128091EA129091EB12892BCC
:100CC00009F460C080917012F801A28D811509F4B9
:100CD0004CC0809169128F5F80936912809171126C
:100CE0008A1710F4A09371124BE04A9FD00111248F
:100CF000AD54BD4E11960D90BC91A02DF801A68368
:100D0000B78316968D919D91808791873E912E9104
:100D1000C8010296F901848395838D939D93D80130
:100D20005A968C91489FF0011124ED54FD4E1E9768
:100D3000ED93FD9380818F5F80830F900FBE809134
:100D40007012811549F0E091EA12F091EB12928D48
:100D5000F801828D981708F10F900F900F900F9067
:100D6000DF91CF911F910F910895E091EA12F091D8
:100D7000EB12828DA81708F4ACCF1093EB120093FE
:100D8000EA12A7CF1093EB120093EA128091761229
:100D9000813031F0F801A28D9CCF0E946B03DCCF33
:100DA00023EB32E129833A8389819A810E94D1051C
:100DB00089819A810B9689839A83AAEEB2E1A8175A
:100DC000B90791F788EA92E10E94D1058DE992E195
:100DD0000E94D1058EE892E10E94D10583E892E15C
:100DE0000E94D10587E792E10E94D10588EA92E14D
:100DF00090939C1280939B128DE992E190939A12AA
:100E000080939912C7CF10926B12E091EA12F09181
:100E1000EB12038CF48DE02D80819181A281B3814E
:100E2000853A954AA54AB54A51F484819581A681AF
:100E3000B781853A954AA54AB54A09F450C06091F0
:100E4000EA127091EB128091EA129091EB12635EBC
:100E50007F4F0E94240C80917112282F30E09BE07C
:100E6000899FF0011124ED54FD4E908191110CC029
:100E70004BE08150282F30E0489FF0011124ED54C1
:100E8000FD4E90819115A9F39BE0929FA001939F45
:100E9000500D1124DA01AD54BD4E1196ED91FD9126
:100EA0000480F581E02DFE93EE9311974A545D4E38
:100EB000E417F50769F0208531853093EB12209314
:100EC000EA12809371128091EA129091EB120895C8
:100ED0001796ED91FD911897ED93FD93ECCF8085DA
:100EE0009185A285B385853A954AA54AB54A09F008
:100EF000A6CF84859585A685B785853A954AA54A66
:100F0000B54A09F09CCFA7CFAF92BF92CF92DF92A4
:100F1000EF92FF920F931F93CF93DF9300D000D0F7
:100F20000F92CDB7DEB789839A836B012B833C8305
:100F30000D83042F10E0C8010E9433045C01892B4B
:100F400009F4A8C08CE290E00E9433048E839F8352
:100F5000009709F49CC0FC018CE211928A95E9F794
:100F6000EE81FF81A38EB48EA80165EA70E0C50111
:100F70000E94260CC8010197EE81FF81038D148D1C
:100F8000080F191FC114D10491F1F6018081EE817F
:100F9000FF81858F811541F1F6018181EE81FF810D
:100FA000868F811509F1F6018281EE81FF81878F9D
:100FB0008115D1F0F6018381EE81FF8180A3811537
:100FC00099F0F6018481EE81FF8181A3811561F0A2
:100FD000F6018581EE81FF8182A3811529F0F6015A
:100FE0008681EE81FF8183A3EE81FF8114A2DD80E3
:100FF000F5E0DF1608F048C0EE81FF81D28ED5A261
:10100000CF0102960E94E2058E819F810E960E947A
:10101000E2058E819F81FC018287938785E090E0C5
:10102000A0E0B0E08D199109A109B10986879787E1
:10103000A08BB18BF78BE68B4B815C8169817A81C8
:10104000C8010E942003EE81FF8180839183E11417
:10105000F10421F0CF01F701808391838E819F817C
:101060000E944A0681E027960FB6F894DEBF0FBEB5
:10107000CDBFDF91CF911F910F91FF90EF90DF9047
:10108000CF90BF90AF90089584E0D82EB5CFC50122
:101090000E942A058FEFE7CF0F931F93CF93DF9323
:1010A00080E490E00E9433048C01892B09F460C035
:1010B0008CE290E00E943304EC01892B09F45FC0BC
:1010C0008CE2FE0111928A95E9F70B8F1C8F40E4A8
:1010D00050E065EA70E0C8010E94260C0B8D1C8D63
:1010E000015C1F4F89E48D8F84E48E8F8CE48F8F99
:1010F00085E488A319A21CA21A8E1DA2CE01029615
:101100000E94E205CE010E960E94E205DB87CA87A7
:1011100085E08E871F86188A198ADF8BCE8B40E088
:1011200050E068E770E0C8010E942003888399833B
:10113000C0936312D0936412CE010E944A06F894C1
:10114000AFEFBFEFCD018093651290936612A0932D
:101150006712B093681281E080937012109272123D
:101160001092731210927412109275120E942F0333
:1011700080913102DF91CF911F910F910895C801A5
:101180000E942A0580913102DF91CF911F910F912A
:101190000895809162128F5F809362120895DF92AA
:1011A000EF92FF920F931F93CF93DF938091621280
:1011B0008111F4C0409172125091731260917412B7
:1011C000709175124F5F5F4F6F4F7F4F4093721258
:1011D00050937312609374127093751241155105F8
:1011E0006105710539F580919B1290919C122091B7
:1011F000991230919A1230939C1220939B129093E3
:101200009A128093991280916A128F5F80936A126A
:10121000E0919B12F0919C128081811103C1AFEF8C
:10122000BFEFCD018093651290936612A093671271
:10123000B09368128091651290916612A091671226
:10124000B0916812481759076A077B0708F4C2C0B3
:10125000E0919B12F0919C128081811509F4F6C0F7
:1012600080E09BE0D92E64C0148615869C91915035
:101270009C93A08DB18D1097F1F002891389E488B9
:10128000F588E801EE82FF8204891589E288F388F7
:10129000E801EC82FD821196ED90FD9013978F018D
:1012A000025F1F4FE016F10609F4B5C0108E118ED3
:1012B0009C9191509C93A28D909171129A1710F469
:1012C000A0937112DA9ED0011124AD54BD4E119637
:1012D0000D90BC91A02DA683B78316960D911D91FC
:1012E000008711871E910E91E8012C833D832D9379
:1012F0003D93A28DDA9ED0011124AD54BD4EA4873A
:10130000B5879C919F5F9C93A091EA12B091EB12DC
:1013100091E0228D5A963C91321708F090E0892B8B
:10132000E0919B12F0919C129081911509F48EC06E
:10133000E0919B12F0919C120780F085E02D0084D3
:10134000F185E02D028113812481358140175107F9
:101350006207730708F486C0A485B58526813781A6
:1013600000851185E9010E831F8320853185068163
:101370001781E9010C831D839F012E5F3F4F11965A
:101380000D911D9113970217130709F06DCF00857A
:10139000118511960D931D93139766CF80916C1252
:1013A00090916D12A0916E12B0916F120196A11DD5
:1013B000B11D80936C1290936D12A0936E12B09336
:1013C0006F1280E0DF91CF911F910F91FF90EF900E
:1013D000DF90089580E0E091EA12F091EB123091F5
:1013E0006B12E28DDBE0ED9FF0011124ED54FD4E18
:1013F00091E02081223008F490E021E0311101C019
:1014000020E0922B892BDF91CF911F910F91FF90BC
:10141000EF90DF9008950489158911960D931D931F
:10142000139744CFE0919B12F0919C120780F085B6
:10143000E02D80819181A281B38180936512909388
:101440006612A0936712B0936812F4CE6FEF7FEF2D
:10145000AB014093651250936612609367127093CC
:101460006812B9CF00936512109366122093671229
:1014700030936812B0CFCF92DF92EF92FF92CF936A
:10148000DF930FB6F8940F9280916212815080938F
:101490006212809162128111C2C080917612811510
:1014A00009F4BDC080918E12811509F492C03BE011
:1014B00041E0E0919512F09196120084F185E02DC3
:1014C000A08DB18D8289938964897589EC016E83C1
:1014D0007F838489958962897389EC016C837D831C
:1014E000CF010E9611966D917D911397681779072C
:1014F00009F4ABC0108E118E8C9181508C93A48511
:10150000B5858681978160857185EC016E837F83C7
:101510008085918566817781EC016C837D83CF0125
:10152000029611966D917D9113976817790709F4CA
:1015300085C0148615862C9121502C93A28D209164
:1015400071122A1710F4A09371123A9FD00111243E
:10155000AD54BD4E11960D90BC91A02DA683B783BE
:1015600016966D917D91608771877E916E91EB01EA
:101570008C839D838D939D93A28D3A9FD0011124DE
:10158000AD54BD4EA487B5878C918F5F8C93A0918D
:10159000EA12B091EB12828D5A969C91981708F03E
:1015A00048C040936B1280918E12811182CFE091DE
:1015B0009B12F0919C12808181114EC0AFEFBFEF62
:1015C000CD018093651290936612A0936712B09339
:1015D0006812C0906C12D0906D12E0906E12F09074
:1015E0006F12C114D104E104F104A9F00E94CF08E4
:1015F000811519F0D1E0D0936B1281E0C81AD1089F
:10160000E108F10899F710926C1210926D12109285
:101610006E1210926F1280916B12811131C080E0B6
:101620000F900FBEDF91CF91FF90EF90DF90CF90A2
:10163000089580918E1281113CCFB9CF608571855C
:1016400011966D937D93139774CF84899589119624
:101650008D939D9313974ECFE0919B12F0919C1226
:101660000780F085E02D80819181A281B3818093F4
:10167000651290936612A0936712B0936812A9CF77
:101680008091EA129091EB120E946B0381E0C8CF27
:10169000CF92DF92EF92FF92CF93DF9300D000D0F2
:1016A0000F920F92CDB7DEB76B017C01C114D1044C
:1016B000E104F10409F447C0809162128F5F8093C6
:1016C00062128091721290917312A0917412B09173
:1016D000751289839A83AB83BC83A0919B12B091CE
:1016E0009C12AD83BE838091991290919A128F8340
:1016F00098878091EA129091EB1202960E941E0642
:1017000089819A81AB81BC81C80ED91EEA1EFB1E5D
:10171000E091EA12F091EB12C282D382E482F58268
:101720006091EA127091EB126E5F7F4FC816D90676
:10173000EA06FB06B8F48F8198850E94E6050E94B0
:101740003B0A811102C00E946B0328960FB6F894E1
:10175000DEBF0FBECDBFDF91CF91FF90EF90DF9046
:10176000CF9008958D819E810E94E605809165123B
:1017700090916612A0916712B0916812C816D906AE
:10178000EA06FB06E0F6C0926512D0926612E0927D
:101790006712F0926812D3CF80916212811521F006
:1017A00081E080936B1208950C94030760E881E058
:1017B0000E94040164EF71E080E090E00E94480B19
:1017C000F5CF60E281E00E94040164EF71E080E007
:1017D00090E00E94480BF5CF00D00F920F92CDB74A
:1017E000DEB785E0E0E0F2E0DE01119601900D92B7
:1017F0008A95E1F7CE0101960E94C70081E08983B6
:1018000080E28A83CE0101960E94C7008EEEE82E08
:1018100082E1F82E02E020E030E040E862E372E08E
:1018200086ED9BE00E9484079CEEE92E92E1F92E62
:1018300020E030E040E867E372E081EE9BE00E9448
:1018400084070E944C08FFCFFFCFFFCFDC0101C00F
:0E1850006D9341505040E0F70895F894FFCF9B
:10185E0001800100002100240027002A002D003005
:10186E000033009B009E00A100A40022002500284A
:10187E00002B002E00310034009C009F00A200A51A
:0C188E0000044C454431004C454432003D
:00000001FF
